:040000006DEF3DF073
:107AD8001200000EF86E000193EF3EF00A500B10F2
:107AE800D8B41DD0010E0C6E05D0D8900A360B36CE
:107AF8000C2A00D00BBE02D0F8D700D00A50085C80
:107B08000B500958D8A005D00A50085E0B50095AE6
:107B180000D0D8900B320A320C2EF0D700D008C013
:107B280008F009C009F01200000E066E000E056E7E
:107B380003500410D8B421D0010E076E05D0D89098
:107B480003360436072A00D004BE02D0F8D700D086
:107B5800D890053606360350015C04500258D8A068
:107B680006D00350015E0450025A058000D0D89018
:107B780004320332072EECD700D005C001F006C04E
:107B880002F012000F0E146E000E156EB9D0250EFD
:107B98001A18D8B404D01A506CEC3DF0B1D0000ECD
:107BA800126E2ED0BBD043D014C0D9FF15C0DAFF57
:107BB800DECF16F0DDCF17F0020E1426000E1522C8
:107BC80016501710D8A410D0EC0E166E7F0E176E34
:107BD8000BD016C0F6FF17C0F7FF0800F5506CEC85
:107BE8003DF0164A172A00D016C0F6FF17C0F7FF57
:107BF8000800F5500009D8B483D0EBD781D017D04E
:107C08000DC0F6FF0EC0F7FF0D4A0E2A0800F5CF8B
:107C18001AF01A50000AD8B481D0640AD8B407D030
:107C28000D0AD8B404D01A0AD8B4BED769D014C083
:107C3800D9FF15C0DAFFDECF18F0DDCF19F0020E3C
:107C48001426000E152219AE07D0030E1212186C56
:107C5800191ED8B0192A00D0010E1A6E050E1A186E
:107C6800D8B416D001D014D01A50020DE90EF3245E
:107C7800F66E7E0EF420F76E0900F550185C0900C8
:107C8800F5501958D8A004D001D002D01A2AE6D746
:107C980012C011F0030E1116D8B404D02D0E6CECDE
:107CA8003DF000D01AC013F025D01350020DE90E94
:107CB800F324F66E7E0EF420F76E0900F5CF03F07C
:107CC8000A00F5CF04F018C001F019C002F098ECD2
:107CD8003DF001C008F002C009F0000E0B6E0A0E5C
:107CE8000A6E72EC3DF00850300F1A6E1A506CECA8
:107CF8003DF000D013061328D8B402D0D6D700D050
:107D08000DC0F6FF0EC0F7FF0D4A0E2A0800F5CF8A
:107D18001AF01A50D8B402D03AD700D01200F30E95
:107D28000D6E7E0E0E6E000E106E010E0F6EC6ECFE
:107D38003DF0090E0D6E7F0E0E6E000E106E010ED8
:107D48000F6EC6EC3DF0010E266E030E256EDC0E9E
:107D58000D6E7F0E0E6E26C00FF0106AC6EC3DF059
:107D6800CC0E0D6E7F0E0E6E25C00FF0106AC6EC9D
:107D78003DF025502618D8B404D0F30E1B6E7F0EA4
:107D880003D0F90E1B6E7F0E1C6E00D0780E0D6EA0
:107D98007F0E0E6E1BC00FF01CC010F0C6EC3DF03D
:107DA8002550265CD8B004D0F30E1D6E7F0E03D08C
:107DB800F90E1D6E7F0E1E6E00D0890E0D6E7F0EA1
:107DC8000E6E1DC00FF01EC010F0C6EC3DF0265020
:107DD800255CD8B004D0F30E1F6E7F0E03D0F90EC9
:107DE8001F6E7F0E206E00D0670E0D6E7F0E0E6E1A
:107DF8001FC00FF020C010F0C6EC3DF02604D8B428
:107E080004D0F30E216E7F0E03D0F90E216E7F0E83
:107E1800226E00D09A0E0D6E7F0E0E6E21C00FF0EE
:107E280022C010F0C6EC3DF0020E2618D8B404D0DB
:107E3800F30E236E7F0E03D0F90E236E7F0E246E91
:107E480000D0AB0E0D6E7F0E0E6E23C00FF024C057
:107E580010F0C6EC3DF0010E266E880E266E2650F8
:107E68002514266E26502510266E26502524266EAB
:107E780026502502F3CF26F0BC0E0D6E7F0E0E6E37
:107E8800000E106E010E0F6EC6EC3DF01F0E0D6E4B
:107E98007F0E0E6E000E106E020E0F6EC6EC3DF0D9
:107EA800550E0D6E7F0E0E6E000E106E020E0F6ECA
:107EB800C6EC3DF0430E0D6E7F0E0E6E000E106E7A
:107EC800020E0F6EC6EC3DF0310E0D6E7F0E0E6E7B
:107ED800000E106E020E0F6EC6EC3DF000EF00F0C3
:107EE8000001000A006400E803102773697A656FCF
:107EF8006628656E756D415F7429203D2025640AEA
:107F08000073697A656F6628656E756D425F7429BE
:107F1800203D2025640A0073697A656F662841262A
:107F28004229203D2025640A0073697A656F662816
:107F3800412A4229203D2025640A0073697A656F29
:107F48006628412B4229203D2025640A0073697A5E
:107F5800656F6628417C4229203D2025640A00413E
:107F6800203C3D204220202020203A2025730A0072
:107F780041203D3D204220202020203A2025730A20
:107F88000041203E3D204220202020203A20257319
:107F98000A0041203D3D203078303120203A20250C
:107FA800730A0041203D3D203078303220203A20AD
:107FB80025730A0073697A656F66284129203D2078
:107FC80025640A0042203D207468697264203D20BF
:107FD80025640A0041203D206669727374203D20A3
:107FE80025640A00286E756C6C290046616C7365FF
:087FF8000054727565000000E1
:00000001FF
